P  CODE 00
P  UNITS CUST 0
P  arrayDim   N
317GND              VIA        MD0118PA00X+021654Y-001969X0276Y0000R000S-1182026605
317GND              VIA        MD0118PA00X+022533Y-008193X0276Y0000R000S-1182026605
317GND              VIA        MD0118PA00X+017874Y-015945X0276Y0000R000S-1182026605
317GND              VIA        MD0118PA00X+018701Y-017717X0276Y0000R000S-1182026605
317GND              VIA        MD0118PA00X+025591Y-000984X0276Y0000R000S-1182026605
317GND              VIA        MD0118PA00X+019685Y-019685X0276Y0000R000S-1182026605
317GND              VIA        MD0118PA00X+025591Y-014764X0276Y0000R000S-1182026605
317GND              VIA        MD0118PA00X+011811Y-005906X0276Y0000R000S-1182026605
317GND              VIA        MD0118PA00X+020614Y-011713X0276Y0000R000S-1182026605
317GND              VIA        MD0118PA00X+000000Y-004921X0276Y0000R000S-1182026605
317GND              VIA        MD0118PA00X+017677Y-009331X0276Y0000R000S-1182026605
317GND              VIA        MD0118PA00X+010827Y+000000X0276Y0000R000S-1182026605
317GND              VIA        MD0118PA00X+019685Y-016732X0276Y0000R000S-1182026605
317GND              VIA        MD0118PA00X+000984Y-003937X0276Y0000R000S-1182026605
317GND              VIA        MD0118PA00X+007386Y-019635X0276Y0000R000S-1182026605
317GND              VIA        MD0118PA00X+021654Y-003937X0276Y0000R000S-1182026605
317GND              VIA        MD0118PA00X+020669Y-000984X0276Y0000R000S-1182026605
317GND              VIA        MD0118PA00X+000836Y-018501X0276Y0000R000S-1182026605
317GND              VIA        MD0118PA00X+021614Y-015551X0276Y0000R000S-1182026605
317GND              VIA        MD0118PA00X+009843Y-002953X0276Y0000R000S-1182026605
317GND              VIA        MD0118PA00X+018701Y-019685X0276Y0000R000S-1182026605
317GND              VIA        MD0118PA00X+001969Y-014567X0276Y0000R000S-1182026605
317GND              VIA        MD0118PA00X+016732Y-020669X0276Y0000R000S-1182026605
317GND              VIA        MD0118PA00X+025591Y-004921X0276Y0000R000S-1182026605
317GND              VIA        MD0118PA00X+025591Y-006890X0276Y0000R000S-1182026605
317GND              VIA        MD0118PA00X+015276Y-019094X0236Y0000R000S-1182026605
317GND              VIA        MD0118PA00X+024606Y-001969X0276Y0000R000S-1182026605
317GND              VIA        MD0118PA00X+011813Y-010481X0276Y0000R000S-1182026605
317GND              VIA        MD0118PA00X+009236Y-010081X0276Y0000R000S-1182026605
317GND              VIA        MD0118PA00X+027559Y-019685X0276Y0000R000S-1182026605
317GND              VIA        MD0118PA00X+027756Y-001969X0276Y0000R000S-1182026605
317GND              VIA        MD0118PA00X+024606Y-013780X0276Y0000R000S-1182026605
317GND              VIA        MD0118PA00X+002756Y-013780X0276Y0000R000S-1182026605
317GND              VIA        MD0118PA00X+017717Y-004921X0276Y0000R000S-1182026605
317GND              VIA        MD0118PA00X+026575Y-004921X0276Y0000R000S-1182026605
317GND              VIA        MD0118PA00X+029528Y-016732X0276Y0000R000S-1182026605
317GND              VIA        MD0118PA00X+017717Y-013780X0276Y0000R000S-1182026605
317GND              VIA        MD0118PA00X+017244Y-009902X0276Y0000R000S-1182026605
317GND              VIA        MD0118PA00X+009843Y-001969X0276Y0000R000S-1182026605
317GND              VIA        MD0118PA00X+001179Y-008054X0276Y0000R000S-1182026605
317GND              VIA        MD0118PA00X+000000Y-003937X0276Y0000R000S-1182026605
317GND              VIA        MD0118PA00X+028543Y-018701X0276Y0000R000S-1182026605
317GND              VIA        MD0118PA00X+026575Y-018701X0276Y0000R000S-1182026605
317GND              VIA        MD0118PA00X+024606Y-000984X0276Y0000R000S-1182026605
317GND              VIA        MD0118PA00X+018701Y-020669X0276Y0000R000S-1182026605
317GND              VIA        MD0118PA00X+016929Y-014173X0276Y0000R000S-1182026605
317GND              VIA        MD0118PA00X+021654Y-014764X0276Y0000R000S-1182026605
317GND              VIA        MD0118PA00X+018701Y-004921X0276Y0000R000S-1182026605
317GND              VIA        MD0118PA00X+026575Y-005906X0276Y0000R000S-1182026605
317GND              VIA        MD0118PA00X+029528Y-017717X0276Y0000R000S-1182026605
317GND              VIA        MD0118PA00X+001969Y-020669X0276Y0000R000S-1182026605
317GND              VIA        MD0118PA00X+023778Y-012974X0276Y0000R000S-1182026605
317GND              VIA        MD0118PA00X+007874Y-001969X0276Y0000R000S-1182026605
317GND              VIA        MD0118PA00X+005118Y-014173X0276Y0000R000S-1182026605
317GND              VIA        MD0118PA00X+003409Y-007982X0276Y0000R000S-1182026605
317GND              VIA        MD0118PA00X+025966Y-012040X0276Y0000R000S-1182026605
317GND              VIA        MD0118PA00X+017717Y-000984X0276Y0000R000S-1182026605
317GND              VIA        MD0118PA00X+028740Y-001969X0276Y0000R000S-1182026605
317GND              VIA        MD0118PA00X+025591Y-002953X0276Y0000R000S-1182026605
317GND              VIA        MD0118PA00X+007874Y-000984X0276Y0000R000S-1182026605
317GND              VIA        MD0118PA00X+012795Y-012795X0276Y0000R000S-1182026605
317GND              VIA        MD0118PA00X+003543Y-012992X0276Y0000R000S-1182026605
317GND              VIA        MD0118PA00X+008259Y-017264X0276Y0000R000S-1182026605
317GND              VIA        MD0118PA00X+027756Y-004921X0276Y0000R000S-1182026605
317GND              VIA        MD0118PA00X+020669Y-017717X0276Y0000R000S-1182026605
317GND              VIA        MD0118PA00X+011240Y-005925X0276Y0000R000S-1182026605
317GND              VIA        MD0118PA00X+016732Y-021654X0276Y0000R000S-1182026605
317GND              VIA        MD0118PA00X+019685Y-018701X0276Y0000R000S-1182026605
317GND              VIA        MD0118PA00X+017717Y-003937X0276Y0000R000S-1182026605
317GND              VIA        MD0118PA00X+018701Y-018701X0276Y0000R000S-1182026605
317GND              VIA        MD0118PA00X+006693Y-012992X0276Y0000R000S-1182026605
317GND              VIA        MD0118PA00X+019685Y-001969X0276Y0000R000S-1182026605
317GND              VIA        MD0118PA00X+024606Y-005906X0276Y0000R000S-1182026605
317GND              VIA        MD0118PA00X+007874Y-006890X0276Y0000R000S-1182026605
317GND              VIA        MD0118PA00X+015748Y-021654X0276Y0000R000S-1182026605
317GND              VIA        MD0118PA00X+002225Y-007962X0276Y0000R000S-1182026605
317GND              VIA        MD0118PA00X+012588Y-014971X0276Y0000R000S-1182026605
317GND              VIA        MD0118PA00X+017520Y-020394X0236Y0000R000S-1182026605
317GND              VIA        MD0118PA00X+022638Y-003937X0276Y0000R000S-1182026605
317GND              VIA        MD0118PA00X+011811Y+000000X0276Y0000R000S-1182026605
317GND              VIA        MD0118PA00X+019449Y-014055X0276Y0000R000S-1182026605
317GND              VIA        MD0118PA00X+028543Y-019685X0276Y0000R000S-1182026605
317GND              VIA        MD0118PA00X+021654Y-000984X0276Y0000R000S-1182026605
317GND              VIA        MD0118PA00X+019685Y-003937X0276Y0000R000S-1182026605
317GND              VIA        MD0118PA00X+020669Y-003937X0276Y0000R000S-1182026605
317GND              VIA        MD0118PA00X+027756Y-003937X0276Y0000R000S-1182026605
317GND              VIA        MD0118PA00X+026575Y-013780X0276Y0000R000S-1182026605
317GND              VIA        MD0118PA00X+023622Y-015748X0276Y0000R000S-1182026605
317GND              VIA        MD0118PA00X+014173Y-009843X0276Y0000R000S-1182026605
317GND              VIA        MD0118PA00X+012992Y-007480X0276Y0000R000S-1182026605
317GND              VIA        MD0118PA00X+000000Y-002953X0276Y0000R000S-1182026605
317GND              VIA        MD0118PA00X+010827Y-002953X0276Y0000R000S-1182026605
317GND              VIA        MD0118PA00X+018189Y-011181X0276Y0000R000S-1182026605
317GND              VIA        MD0118PA00X+021055Y-011803X0276Y0000R000S-1182026605
317GND              VIA        MD0118PA00X+000000Y-001969X0276Y0000R000S-1182026605
317GND              VIA        MD0118PA00X+019685Y-000984X0276Y0000R000S-1182026605
317GND              VIA        MD0118PA00X+017717Y-021654X0276Y0000R000S-1182026605
317GND              VIA        MD0118PA00X+025591Y-005906X0276Y0000R000S-1182026605
317GND              VIA        MD0118PA00X+012795Y-020748X0236Y0000R000S-1182026605
317GND              VIA        MD0118PA00X+014370Y-011417X0276Y0000R000S-1182026605
317GND              VIA        MD0118PA00X+024606Y-019685X0276Y0000R000S-1182026605
317GND              VIA        MD0118PA00X+013780Y-005906X0276Y0000R000S-1182026605
317GND              VIA        MD0118PA00X+025591Y-018701X0276Y0000R000S-1182026605
317GND              VIA        MD0118PA00X+010827Y-000984X0276Y0000R000S-1182026605
317GND              VIA        MD0118PA00X+028543Y-013780X0276Y0000R000S-1182026605
317GND              VIA        MD0118PA00X+000984Y-004921X0276Y0000R000S-1182026605
317GND              VIA        MD0118PA00X+007874Y-002953X0276Y0000R000S-1182026605
317GND              VIA        MD0118PA00X+028740Y-002953X0276Y0000R000S-1182026605
317GND              VIA        MD0118PA00X+013386Y-010630X0276Y0000R000S-1182026605
317GND              VIA        MD0118PA00X+008858Y-002953X0276Y0000R000S-1182026605
317GND              VIA        MD0118PA00X+023891Y-011331X0276Y0000R000S-1182026605
317GND              VIA        MD0118PA00X+021654Y-004921X0276Y0000R000S-1182026605
317GND              VIA        MD0118PA00X+017323Y-006693X0276Y0000R000S-1182026605
317GND              VIA        MD0118PA00X+011811Y-002953X0276Y0000R000S-1182026605
317GND              VIA        MD0118PA00X+008238Y-015482X0276Y0000R000S-1182026605
317GND              VIA        MD0118PA00X+013780Y-012795X0276Y0000R000S-1182026605
317GND              VIA        MD0118PA00X+008858Y+000000X0276Y0000R000S-1182026605
317GND              VIA        MD0118PA00X+014600Y-019072X0276Y0000R000S-1182026605
317GND              VIA        MD0118PA00X+005917Y-019050X0276Y0000R000S-1182026605
317GND              VIA        MD0118PA00X+016732Y-018701X0276Y0000R000S-1182026605
317GND              VIA        MD0118PA00X+023622Y-016732X0276Y0000R000S-1182026605
317GND              VIA        MD0118PA00X+023622Y-017717X0276Y0000R000S-1182026605
317GND              VIA        MD0118PA00X+028740Y-003937X0276Y0000R000S-1182026605
317GND              VIA        MD0118PA00X+014390Y-009054X0276Y0000R000S-1182026605
317GND              VIA        MD0118PA00X+016376Y-016097X0276Y0000R000S-1182026605
317GND              VIA        MD0118PA00X+015748Y-019685X0276Y0000R000S-1182026605
317GND              VIA        MD0118PA00X+023622Y-018701X0276Y0000R000S-1182026605
317GND              VIA        MD0118PA00X+009843Y-007874X0276Y0000R000S-1182026605
317GND              VIA        MD0118PA00X+000984Y-002953X0276Y0000R000S-1182026605
317GND              VIA        MD0118PA00X+023228Y-009921X0236Y0000R000S-1182026605
317GND              VIA        MD0118PA00X+000258Y-009243X0276Y0000R000S-1182026605
317GND              VIA        MD0118PA00X+026575Y-003937X0276Y0000R000S-1182026605
317GND              VIA        MD0118PA00X+012795Y-005906X0276Y0000R000S-1182026605
317GND              VIA        MD0118PA00X+024606Y-018701X0276Y0000R000S-1182026605
317GND              VIA        MD0118PA00X+008858Y-007874X0276Y0000R000S-1182026605
317GND              VIA        MD0118PA00X+026575Y-001969X0276Y0000R000S-1182026605
317GND              VIA        MD0118PA00X+002953Y-020669X0276Y0000R000S-1182026605
317GND              VIA        MD0118PA00X+008858Y-001969X0276Y0000R000S-1182026605
317GND              VIA        MD0118PA00X+011811Y-000984X0276Y0000R000S-1182026605
317GND              VIA        MD0118PA00X+024606Y-003937X0276Y0000R000S-1182026605
317GND              VIA        MD0118PA00X+016535Y-006693X0276Y0000R000S-1182026605
317GND              VIA        MD0118PA00X+013546Y-015849X0276Y0000R000S-1182026605
317GND              VIA        MD0118PA00X+026575Y-019685X0276Y0000R000S-1182026605
317GND              VIA        MD0118PA00X+022638Y-006890X0276Y0000R000S-1182026605
317GND              VIA        MD0118PA00X+018701Y-000984X0276Y0000R000S-1182026605
317GND              VIA        MD0118PA00X+024614Y-009067X0276Y0000R000S-1182026605
317GND              VIA        MD0118PA00X+014764Y-014764X0276Y0000R000S-1182026605
317GND              VIA        MD0118PA00X+028740Y-000984X0276Y0000R000S-1182026605
317GND              VIA        MD0118PA00X+002953Y-021654X0276Y0000R000S-1182026605
317GND              VIA        MD0118PA00X+021654Y-002953X0276Y0000R000S-1182026605
317GND              VIA        MD0118PA00X+026575Y-002953X0276Y0000R000S-1182026605
317GND              VIA        MD0118PA00X+008110Y-020315X0276Y0000R000S-1182026605
317GND              VIA        MD0118PA00X+027756Y-000984X0276Y0000R000S-1182026605
317GND              VIA        MD0118PA00X+011811Y-001969X0276Y0000R000S-1182026605
317GND              VIA        MD0118PA00X+029528Y-019685X0276Y0000R000S-1182026605
317GND              VIA        MD0118PA00X+009843Y+000000X0276Y0000R000S-1182026605
317GND              VIA        MD0118PA00X+023622Y-002953X0276Y0000R000S-1182026605
317GND              VIA        MD0118PA00X+020669Y-019685X0276Y0000R000S-1182026605
317GND              VIA        MD0118PA00X+012598Y-010630X0276Y0000R000S-1182026605
317GND              VIA        MD0118PA00X+018701Y-003937X0276Y0000R000S-1182026605
317GND              VIA        MD0118PA00X+017262Y-010622X0276Y0000R000S-1182026605
317GND              VIA        MD0118PA00X+008858Y-000984X0276Y0000R000S-1182026605
317GND              VIA        MD0118PA00X+022638Y-002953X0276Y0000R000S-1182026605
317GND              VIA        MD0118PA00X+029528Y-018701X0276Y0000R000S-1182026605
317GND              VIA        MD0118PA00X+028740Y-004921X0276Y0000R000S-1182026605
317GND              VIA        MD0118PA00X+007480Y-008333X0276Y0000R000S-1182026605
317GND              VIA        MD0118PA00X+027559Y-018701X0276Y0000R000S-1182026605
317GND              VIA        MD0118PA00X+021654Y-010630X0276Y0000R000S-1182026605
317GND              VIA        MD0118PA00X+010630Y-009843X0276Y0000R000S-1182026605
317GND              VIA        MD0118PA00X+019685Y-006890X0276Y0000R000S-1182026605
317GND              VIA        MD0118PA00X+017753Y-007408X0276Y0000R000S-1182026605
317GND              VIA        MD0118PA00X+023622Y-014764X0276Y0000R000S-1182026605
317GND              VIA        MD0118PA00X+028740Y-005906X0276Y0000R000S-1182026605
317GND              VIA        MD0118PA00X+007697Y-011988X0236Y0000R000S-1182026605
317GND              VIA        MD0118PA00X+005160Y-007973X0276Y0000R000S-1182026605
317GND              VIA        MD0118PA00X+022638Y-004921X0276Y0000R000S-1182026605
317GND              VIA        MD0118PA00X+020669Y-001969X0276Y0000R000S-1182026605
317GND              VIA        MD0118PA00X+025591Y-001969X0276Y0000R000S-1182026605
317GND              VIA        MD0118PA00X+004331Y-014961X0276Y0000R000S-1182026605
317GND              VIA        MD0118PA00X+023622Y-007874X0276Y0000R000S-1182026605
317GND              VIA        MD0118PA00X+020669Y-004921X0276Y0000R000S-1182026605
317GND              VIA        MD0118PA00X+017244Y-008346X0276Y0000R000S-1182026605
317GND              VIA        MD0118PA00X+015316Y-007402X0276Y0000R000S-1182026605
317GND              VIA        MD0118PA00X+025591Y-003937X0276Y0000R000S-1182026605
317GND              VIA        MD0118PA00X+025591Y-019685X0276Y0000R000S-1182026605
317GND              VIA        MD0118PA00X+016865Y-015549X0276Y0000R000S-1182026605
317GND              VIA        MD0118PA00X+021693Y-012008X0276Y0000R000S-1182026605
317GND              VIA        MD0118PA00X+009843Y-000984X0276Y0000R000S-1182026605
317GND              VIA        MD0118PA00X+014394Y-005925X0276Y0000R000S-1182026605
317GND              VIA        MD0118PA00X+010827Y-001969X0276Y0000R000S-1182026605
317GND              VIA        MD0118PA00X+004567Y-011220X0236Y0000R000S-1182026605
317GND              VIA        MD0118PA00X+024606Y-015748X0276Y0000R000S-1182026605
317GND              VIA        MD0118PA00X+010827Y-006890X0276Y0000R000S-1182026605
317GND              VIA        MD0118PA00X+018701Y-001969X0276Y0000R000S-1182026605
317GND              VIA        MD0118PA00X+023622Y-005906X0276Y0000R000S-1182026605
317GND              VIA        MD0118PA00X+000000Y-005906X0276Y0000R000S-1182026605
317GND              VIA        MD0118PA00X+024606Y-014764X0276Y0000R000S-1182026605
317GND              VIA        MD0118PA00X+017717Y-002953X0276Y0000R000S-1182026605
317GND              VIA        MD0118PA00X+021654Y-008858X0276Y0000R000S-1182026605
317GND              VIA        MD0118PA00X+000984Y-005906X0276Y0000R000S-1182026605
317GND              VIA        MD0118PA00X+017717Y-001969X0276Y0000R000S-1182026605
317GND              VIA        MD0118PA00X+018701Y-021654X0276Y0000R000S-1182026605
317GND              VIA        MD0118PA00X+004193Y-019056X0276Y0000R000S-1182026605
317GND              VIA        MD0118PA00X+015748Y-020669X0276Y0000R000S-1182026605
317GND              VIA        MD0118PA00X+022638Y-001969X0276Y0000R000S-1182026605
317GND              VIA        MD0118PA00X+019685Y-004921X0276Y0000R000S-1182026605
317GND              VIA        MD0118PA00X+017520Y-014567X0276Y0000R000S-1182026605
317GND              VIA        MD0118PA00X+017992Y-009961X0276Y0000R000S-1182026605
317GND              VIA        MD0118PA00X+015748Y-013780X0276Y0000R000S-1182026605
317GND              VIA        MD0118PA00X+000253Y-011304X0276Y0000R000S-1182026605
317GND              VIA        MD0118PA00X+016732Y-019685X0276Y0000R000S-1182026605
317GND              VIA        MD0118PA00X+000255Y-014368X0276Y0000R000S-1182026605
317GND              VIA        MD0118PA00X+029528Y-013780X0276Y0000R000S-1182026605
317GND              VIA        MD0118PA00X+022638Y-008858X0276Y0000R000S-1182026605
317GND              VIA        MD0118PA00X+020669Y-006890X0276Y0000R000S-1182026605
317GND              VIA        MD0118PA00X+018701Y-002953X0276Y0000R000S-1182026605
317GND              VIA        MD0118PA00X+013386Y-009843X0276Y0000R000S-1182026605
317GND              VIA        MD0118PA00X+019685Y-002953X0276Y0000R000S-1182026605
317GND              VIA        MD0118PA00X+017269Y-011490X0276Y0000R000S-1182026605
317GND              VIA        MD0118PA00X+013189Y-016732X0236Y0000R000S-1182026605
317GND              VIA        MD0118PA00X+027756Y-002953X0276Y0000R000S-1182026605
317GND              VIA        MD0118PA00X+024606Y-002953X0276Y0000R000S-1182026605
317GND              VIA        MD0118PA00X+018110Y-006693X0276Y0000R000S-1182026605
317GND              VIA        MD0118PA00X+024543Y-007977X0276Y0000R000S-1182026605
317GND              VIA        MD0118PA00X+000984Y-001969X0276Y0000R000S-1182026605
317GND              VIA        MD0118PA00X+007874Y+000000X0276Y0000R000S-1182026605
317GND              VIA        MD0118PA00X+009021Y-021058X0276Y0000R000S-1182026605
317GND              VIA        MD0118PA00X+027756Y-005906X0276Y0000R000S-1182026605
317GND              VIA        MD0118PA00X+002426Y-019050X0276Y0000R000S-1182026605
317GND              VIA        MD0118PA00X+020669Y-002953X0276Y0000R000S-1182026605
317GND              VIA        MD0118PA00X+021654Y-013780X0276Y0000R000S-1182026605
317GND              VIA        MD0118PA00X+022638Y-000984X0276Y0000R000S-1182026605
317GND              VIA        MD0118PA00X+012598Y-011417X0276Y0000R000S-1182026605
317GND              VIA        MD0118PA00X+023622Y-000984X0276Y0000R000S-1182026605
317GND              VIA        MD0118PA00X+023622Y-008858X0276Y0000R000S-1182026605
317GND              VIA        MD0118PA00X+000250Y-016268X0276Y0000R000S-1182026605
317GND              VIA        MD0118PA00X+025591Y-013780X0276Y0000R000S-1182026605
317GND              VIA        MD0118PA00X+012205Y-008268X0276Y0000R000S-1182026605
317GND              VIA        MD0118PA00X+023622Y-004921X0276Y0000R000S-1182026605
317GND              VIA        MD0118PA00X+009843Y-006890X0276Y0000R000S-1182026605
317GND              VIA        MD0118PA00X+008477Y-009347X0276Y0000R000S-1182026605
317GND              VIA        MD0118PA00X+023622Y-003937X0276Y0000R000S-1182026605
317GND              VIA        MD0118PA00X+001969Y-021654X0276Y0000R000S-1182026605
317GND              VIA        MD0118PA00X+023622Y-001969X0276Y0000R000S-1182026605
317GND              VIA        MD0118PA00X+006890Y-006890X0276Y0000R000S-1182026605
317GND              VIA        MD0118PA00X+021654Y-006890X0276Y0000R000S-1182026605
317GND              VIA        MD0118PA00X+021654Y-017717X0276Y0000R000S-1182026605
317GND              VIA        MD0118PA00X+024606Y-006890X0276Y0000R000S-1182026605
317GND              VIA        MD0118PA00X+012598Y-021142X0276Y0000R000S-1182026605
317GND              VIA        MD0118PA00X+024606Y-004921X0276Y0000R000S-1182026605
317GND              VIA        MD0118PA00X+026575Y-000984X0276Y0000R000S-1182026605
317GND              VIA        MD0118PA00X+029528Y-014764X0276Y0000R000S-1182026605
317GND              VIA        MD0118PA00X+011417Y-009055X0276Y0000R000S-1182026605
317GND              VIA        MD0118PA00X+027559Y-013780X0276Y0000R000S-1182026605
317GND              VIA        MD0118PA00X+013780Y-011811X0276Y0000R000S-1182026605
317GND              VIA        MD0118PA00X+000243Y-012638X0276Y0000R000S-1182026605
317GND              VIA        MD0118PA00X+006358Y-007974X0276Y0000R000S-1182026605
317GND              VIA        MD0118PA00X+003819Y-009016X0236Y0000R000S-1182026605
317GND              VIA        MD0118PA00X+023622Y-009843X0276Y0000R000S-1182026605
317GND              VIA        MD0118PA00X+008858Y-006890X0276Y0000R000S-1182026605
317GND              VIA        MD0118PA00X+029528Y-015748X0276Y0000R000S-1182026605
317GND              VIA        MD0118PA00X+022638Y-009843X0276Y0000R000S-1182026605
317GND              VIA        MD0118PA00X+018898Y-006693X0276Y0000R000S-1182026605
317+5V              VIA        MD0118PA00X+020299Y-011929X0236Y0000R000S-1182026605
317+5V              VIA        MD0118PA00X+017598Y-009724X0236Y0000R000S-1182026605
317NET-(U108-1Y)    VIA        MD0118PA00X+020965Y-012283X0236Y0000R000S-1182026605
317NET-(U108-1Y)    VIA        MD0118PA00X+017441Y-008622X0236Y0000R000S-1182026605
327GND              U106  -1          A01X+013991Y-016770X0780Y0220R000S2
327NET-(U104-Y)     U106  -2          A01X+013991Y-017270X0780Y0220R000S2
327NET-(U106-OUT)   U106  -3          A01X+013991Y-017770X0780Y0220R000S2
327+5V              U106  -4          A01X+013991Y-018270X0780Y0220R000S2
327ET-(U106-CONT)   U106  -5          A01X+015931Y-018270X0780Y0220R000S2
327T-(U106-DISCH)   U106  -6          A01X+015931Y-017770X0780Y0220R000S2
327T-(U106-DISCH)   U106  -7          A01X+015931Y-017270X0780Y0220R000S2
327+5V              U106  -8          A01X+015931Y-016770X0780Y0220R000S2
367N/C              H103        D0866UA00X+029528Y-021654X0866Y0000R000S0
327+5V              C103  -1          A01X+013748Y-019055X0220Y0244R000S2
327GND              C103  -2          A01X+014126Y-019055X0220Y0244R000S2
317+12V             U102  -1    D0700PA00X+005118Y-005140X0900Y0000R270S0
317GND              U102  -2    D0700PA00X+005118Y-002640X0900Y0000R270S0
317N/C              U102  -3    D0700PA00X+005118Y-006890X0900Y0000R270S0
327+5V              RV101 -1          A01X+005562Y-011876X0500Y0610R180S2
327THRESH_BSE       RV101 -2          A01X+005062Y-013016X0790Y0610R180S2
327GND              RV101 -3          A01X+004562Y-011876X0500Y0610R180S2
327+5V              RV103 -1          A01X+016150Y-009054X0500Y0610R180S2
32710%_THROTTLE     RV103 -2          A01X+015650Y-010194X0790Y0610R180S2
327GND              RV103 -3          A01X+015150Y-009054X0500Y0610R180S2
317OTTLE_SENSE_IN   U111  -1    D0700PA00X+010157Y-019325X0900Y0000R270S0
317BSE_SENSE_IN     U111  -2    D0700PA00X+010157Y-016825X0900Y0000R270S0
317N/C              U111  -3    D0700PA00X+010157Y-021075X0900Y0000R270S0
327T-(U106-DISCH)   C108  -1          A01X+017520Y-019094X0394Y0571R090S2
327GND              C108  -2          A01X+017520Y-019843X0394Y0571R090S2
327NET-(U107-3A)    R102  -1          A01X+020487Y-016339X0443Y0689R000S2
327GND              R102  -2          A01X+021639Y-016339X0443Y0689R000S2
327+12V             C102  -1          A01X+011240Y-004606X0394Y0571R090S2
327GND              C102  -2          A01X+011240Y-005354X0394Y0571R090S2
327+5V              C109  -1          A01X+023228Y-010740X0220Y0244R270S2
327GND              C109  -2          A01X+023228Y-010362X0220Y0244R270S2
327+5V              R103  -1          A01X+017520Y-016944X0443Y0689R090S2
327T-(U106-DISCH)   R103  -2          A01X+017520Y-018095X0443Y0689R090S2
327+5V              C106  -1          A01X+019480Y-014449X0220Y0244R180S2
327GND              C106  -2          A01X+019102Y-014449X0220Y0244R180S2
317BSPD_TO_FAULT    U110  -1    D0700PA00X+028543Y-010664X0900Y0000R270S0
317ED-(U110-PAD2)   U110  -2    D0700PA00X+028543Y-008164X0900Y0000R270S0
317N/C              U110  -3    D0700PA00X+028543Y-012414X0900Y0000R270S0
3271OUT             U104  -1          A01X+012776Y-019567X0217Y0315R270S2
3272OUT             U104  -2          A01X+012776Y-019941X0217Y0315R270S2
327GND              U104  -3          A01X+012776Y-020315X0217Y0315R270S2
327NET-(U104-Y)     U104  -4          A01X+013780Y-020315X0217Y0315R270S2
327+5V              U104  -5          A01X+013780Y-019567X0217Y0315R270S2
327NET-(Q1-G)       Q1    -1          A01X+025217Y-009677X0581Y0236R270S2
327GND              Q1    -2          A01X+025965Y-009677X0581Y0236R270S2
327NET-(Q1-D)       Q1    -3          A01X+025591Y-008939X0581Y0236R270S2
327+12V             R1    -1          A01X+025173Y-007992X0404Y0551R000S2
327NET-(Q1-D)       R1    -2          A01X+025892Y-007992X0404Y0551R000S2
367N/C              H104        D0866UA00X+029528Y+000000X0866Y0000R000S0
367N/C              H101        D0866UA00X+000000Y+000000X0866Y0000R000S0
327+5V              C104  -1          A01X+015728Y-005906X0394Y0571R180S2
327GND              C104  -2          A01X+014980Y-005906X0394Y0571R180S2
327+5V              C101  -1          A01X+008437Y-011988X0220Y0244R180S2
327GND              C101  -2          A01X+008059Y-011988X0220Y0244R180S2
317+12V             U103  -1    D0340PA00X+013780Y-004331X0540Y0540R000S0
317GND              U103  -2    D0340PA00X+014780Y-004331X0540Y0000R000S0
317+5V              U103  -3    D0340PA00X+015780Y-004331X0540Y0000R000S0
327+5V              C107  -1          A01X+021650Y-008169X0220Y0244R000S2
327GND              C107  -2          A01X+022028Y-008169X0220Y0244R000S2
327NET-(Q1-D)       Q2    -1          A01X+025217Y-011393X0581Y0236R270S2
327GND              Q2    -2          A01X+025965Y-011393X0581Y0236R270S2
327BSPD_TO_FAULT    Q2    -3          A01X+025591Y-010655X0581Y0236R270S2
327NET-(U107-2A)    R101  -1          A01X+018322Y-013386X0443Y0689R000S2
327GND              R101  -2          A01X+019473Y-013386X0443Y0689R000S2
327NET-(U107-1Y)    U108  -1          A01X+018926Y-008161X0780Y0220R000S2
327NET-(U104-Y)     U108  -2          A01X+018926Y-008661X0780Y0220R000S2
327NET-(U108-1Y)    U108  -3          A01X+018926Y-009161X0780Y0220R000S2
327+5V              U108  -4          A01X+018926Y-009661X0780Y0220R000S2
327+5V              U108  -5          A01X+018926Y-010161X0780Y0220R000S2
327(U108-2Y-PAD6)   U108  -6          A01X+018926Y-010661X0780Y0220R000S2
327GND              U108  -7          A01X+018926Y-011161X0780Y0220R000S2
327(U108-3Y-PAD8)   U108  -8          A01X+020866Y-011161X0780Y0220R000S2
327+5V              U108  -9          A01X+020866Y-010661X0780Y0220R000S2
327+5V              U108  -10         A01X+020866Y-010161X0780Y0220R000S2
327NET-(U108-4Y)    U108  -11         A01X+020866Y-009661X0780Y0220R000S2
3274OUT             U108  -12         A01X+020866Y-009161X0780Y0220R000S2
3273OUT             U108  -13         A01X+020866Y-008661X0780Y0220R000S2
327+5V              U108  -14         A01X+020866Y-008161X0780Y0220R000S2
317THROTTLE_IN      U101  -1    D0700PA00X+003824Y-016831X0900Y0000R000S0
317BSE_IN           U101  -2    D0700PA00X+006324Y-016831X0900Y0000R000S0
317N/C              U101  -3    D0700PA00X+002074Y-016831X0900Y0000R000S0
367N/C              H102        D0866UA00X+000000Y-021654X0866Y0000R000S0
327NET-(U108-1Y)    U109  -1          A01X+022224Y-011276X0217Y0315R270S2
327NET-(U108-4Y)    U109  -2          A01X+022224Y-011650X0217Y0315R270S2
327GND              U109  -3          A01X+022224Y-012024X0217Y0315R270S2
327NET-(Q1-G)       U109  -4          A01X+023228Y-012024X0217Y0315R270S2
327+5V              U109  -5          A01X+023228Y-011276X0217Y0315R270S2
327NET-(U106-OUT)   U107  -1          A01X+018248Y-014961X0300Y0100R000S2
327+5V              U107  -2          A01X+018248Y-015157X0300Y0100R000S2
327NET-(U107-2A)    U107  -3          A01X+018248Y-015354X0300Y0100R000S2
327GND              U107  -4          A01X+018248Y-015551X0300Y0100R000S2
327+5V              U107  -5          A01X+019488Y-015551X0300Y0100R000S2
327NET-(U107-3A)    U107  -6          A01X+019488Y-015354X0300Y0100R000S2
327NET-(U107-1Y)    U107  -7          A01X+019488Y-015157X0300Y0100R000S2
327+5V              U107  -8          A01X+019488Y-014961X0300Y0100R000S2
327ET-(U106-CONT)   C105  -1          A01X+016134Y-019094X0220Y0244R180S2
327GND              C105  -2          A01X+015756Y-019094X0220Y0244R180S2
327+5V              RV104 -1          A01X+016157Y-011417X0500Y0610R180S2
327HARD_BREAK       RV104 -2          A01X+015657Y-012557X0790Y0610R180S2
327GND              RV104 -3          A01X+015157Y-011417X0500Y0610R180S2
3271OUT             U105  -1          A01X+009212Y-010980X0780Y0220R000S2
3272OUT             U105  -2          A01X+009212Y-011480X0780Y0220R000S2
327+5V              U105  -3          A01X+009212Y-011980X0780Y0220R000S2
327HRESH_THROTTLE   U105  -4          A01X+009212Y-012480X0780Y0220R000S2
327THROTTLE_IN      U105  -5          A01X+009212Y-012980X0780Y0220R000S2
327THRESH_BSE       U105  -6          A01X+009212Y-013480X0780Y0220R000S2
327BSE_IN           U105  -7          A01X+009212Y-013980X0780Y0220R000S2
327HARD_BREAK       U105  -8          A01X+011152Y-013980X0780Y0220R000S2
327BSE_SENSE_IN     U105  -9          A01X+011152Y-013480X0780Y0220R000S2
32710%_THROTTLE     U105  -10         A01X+011152Y-012980X0780Y0220R000S2
327OTTLE_SENSE_IN   U105  -11         A01X+011152Y-012480X0780Y0220R000S2
327GND              U105  -12         A01X+011152Y-011980X0780Y0220R000S2
3274OUT             U105  -13         A01X+011152Y-011480X0780Y0220R000S2
3273OUT             U105  -14         A01X+011152Y-010980X0780Y0220R000S2
327+5V              RV102 -1          A01X+005539Y-009000X0500Y0610R180S2
327HRESH_THROTTLE   RV102 -2          A01X+005039Y-010140X0790Y0610R180S2
327GND              RV102 -3          A01X+004539Y-009000X0500Y0610R180S2
999
